:100000000C9434000C943E000C943E000C943E0082
:100010000C943E000C943E000C943E000C943E0068
:100020000C943E000C943E000C943E000C943E0058
:100030000C943E000C943E000C943E000C943E0048
:100040000C943E000C943E000C943E000C943E0038
:100050000C943E000C943E000C943E000C943E0028
:100060000C943E000C943E0011241FBECFEFD8E04C
:10007000DEBFCDBF0E9453000C945B000C940000C7
:100080000F931F93182F012D123040F0812F8A9566
:100090000E944000080F12501230C0F7010F802F4D
:1000A0001F910F9108958AE00E944000682F7727E2
:0A00B00080E090E00895F894FFCF7F
:00000001FF
